:020000040000FA
:02000000EC28EA
:08000800F000030EF1000408F2
:10001000F2000A08F3008A01831203138B1A0B1DE6
:1000200014287D200B1174280B1A8B1C1A28DF2032
:100030008B1074288B190B1C2028E0200B107428BF
:100040000B1F742883160C1F2B2883120C1F2B28C0
:10005000E2200C13742883168C1E332883128C1E06
:100060003328E320742883160C1E3B2883120C1EB1
:100070003B28E420742883168C1D442883128C1D91
:100080004428E5208C11742883160C1D4D288312FA
:100090000C1D4D28E6200C11742883168C1C562844
:1000A00083128C1C5628E7208C10742883160C1C95
:1000B0005F2883120C1C5F28E8200C10742883161C
:1000C0000D1E682883120D1E6828E9200D12742861
:1000D00083168D1D712883128D1D7128EA208D11C4
:1000E00074288312EB200D1073088A0072088400B4
:1000F000710E8300F00E700E0900C70BDE28503021
:10010000C7000130C600481C8628B0283430033EA2
:1001100084000008031DB02848103430C300430891
:10012000033E840002308403800700080A3C031D5C
:10013000AA28800184030130800700080A3C031DBF
:10014000AA28800184030130800700080A3C031DAF
:10015000AA289E210530C307C60DC61D8F28DE289C
:1001600048143430C3004308033E84000530800740
:1001700000080A3C031DDB2880018403033080074C
:1001800000080A3C031DD528800184030130800744
:1001900000080A3C031DD528800184030130800734
:1001A00000080A3C031DD5289E210530C307C60D53
:1001B000C61DB328DE2802308403BF2808000800CB
:1001C00006080800080008000800080008000800E9
:1001D0000800080008000800831203138501860147
:1001E0008701831606309F003F308500003086006F
:1001F000003087000730810060308B0000308C00B9
:1002000000308D008C018D018B170629831203139A
:100210000530C9005030C700FF30860087004C22EF
:100220000130C4000518122986014C2214227F30A7
:1002300086000530C50085181E2922295922C50BC4
:100240001B292429E321E0173430B3000130870053
:1002500005193929FF30860059220130C407441D91
:10026000322935290530B30739290130C40034302B
:10027000B30005183C29062985193F299E21051A36
:1002800045293030C70068229521013087003308A6
:10029000840000085621871C4E297F398600682279
:1002A000840A0310870D871E49292829C300003CB2
:1002B000031D5B298B294308013C031D60298C2900
:1002C0004308023C031D65298D294308033C031D97
:1002D0006A298E294308043C031D6F298F2943088E
:1002E000053C031D742990294308063C031D792908
:1002F00091294308073C031D7E2992294308083CA5
:10030000031D832993294308093C031D8829942947
:10031000FF3008009429C034F934A434B03499343F
:1003200092348234F83480349034C90B9D290530DE
:10033000C9000130C700FE00810008004408013CEC
:10034000031DA329AE214408023C031DA829B7219F
:100350004408033C031DAD29C0210800481CB429F2
:10036000B1293430C92108003430D6210800481C96
:10037000BD29BA293930C92108003930D6210800F1
:10038000481CC629C3293E30C92108003E30D62169
:100390000800840000308000840A01308000840A54
:1003A00007308000840A0530800008008400003097
:1003B0008000840A01308000840A04308000840AAE
:1003C0000030800008003430840000308000840A4F
:1003D00001308000840A07308000840A05308000E4
:1003E000840A013080003930840000308000840AA3
:1003F00001308000840A07308000840A05308000C4
:10040000840A023080003E30840000308000840A7C
:1004100001308000840A07308000840A05308000A3
:10042000840A033080000800481034308400003013
:100430008000840A01308000840A04308000840A2D
:1004400000308000840A01308000393084000030A0
:100450008000840A01308000840A04308000840A0D
:1004600000308000840A023080003E30840000307A
:100470008000840A01308000840A04308000840AED
:1004800000308000840A0330800008006430B0002F
:100490004F2A3230B0004F2A2330B0004F2A5F225B
:1004A000B00B4F2A0800C830B100612A9630B10065
:1004B000612A6430B100612A1E30B100612A0A301D
:1004C000B1006822B10B612A080068226B22080083
:1004D000F930B200712A8430B200712A3E30B20085
:1004E000712A0000B20B712A08000E30B200B20B64
:1004F000772A08000C30B200B20B7C2A08000330C7
:10050000B2000000B20B872A08000330B200B20B21
:04051000872A08002E
:02400E00323F3F
:00000001FF
